:060000000A128A11142906
:10000800F000030EF1000B1810200B192220710EBE
:100018008300F00E700E09000B1C080003138312F6
:10002800061B1E20061F3020861B2020861F352019
:100038000B10080072140800F2140800031383124E
:10004800D93081000B11F30A7308323C031D2F28A5
:10005800F301860A3A280800721C0800850AF20192
:100068000800F21C08008503F2010800F40A74086D
:100078000A3C031D4128F40142280800F50A7508C6
:0C008800063C031D4928F501F4010800A6
:100200008A010A140F3982073F3406345B344F34B5
:1002100066346D347D3407347F34673477347C340E
:1002200039345E34793471340317831688018901B7
:1002300003138316850187018801031383160617AC
:100240008617061186110612861203138312850182
:100250008601870188010313831616179617031367
:10026000831206080B1003138316811303138316DE
:1002700015179517031383128B178B150B108B16FD
:100280000B11031383160F178F120F160F1403137E
:10029000831681110115811401148112F301F401F7
:1002A000F50103138312D9308100740800218800FE
:0802B0007508002187005529A3
:04400E00C423FF3F89
:00000001FF
